:020000040000FA
:0600000083018A0158286B
:080008002000911C2828911032
:100010008501EB21E921E721E52121000C160C15D2
:10002000200072100C1D7214F2100C1EF2147217C4
:10003000A30B04322108A30021000C122000A40B02
:1000400006322208A400721D023221000C11200089
:100050002000111D57283714721E312825009301E6
:100060005528250013184928700891077108923DFA
:1000700020000A30B71C0930371D093025009300D5
:100080004030F5009C30F6007008F5027108F63B30
:100090005528403091079C30923D20000A30B71C13
:1000A0000830371D08302500930020001111090089
:1000B0002100951795129511151495141515723088
:1000C00099001730970023008C0120000130980020
:1000D0009913B6214E309C007D309B002100911475
:1000E0002000721622001D14250093012100111515
:1000F000200000308C002100DC308C0020006400E7
:100100006430A1000130A2006400C62164000B1716
:100110008B1720000430AD004B21640020002D0817
:100120002E04031D2532721C1332F21C0632B83025
:10013000AF000B30B000F2113A3227210230FC0739
:100140000030FD3D86212421F2150530AD0010322E
:10015000F21C0B3227210230FC020030FD3B8621CD
:100160002421F2150530AD000332F219D521F21128
:10017000721F1D3272138C1D0D3205303802031DA3
:10018000073222000C148C142000F21672150E3265
:10019000B80A0D32B808031D073222000C108C106B
:1001A0002000F21272110232B80301322A2120001B
:1001B000371C383237102F083102F8003008323B34
:1001C000F804031D0432A9080319371526326430D8
:1001D000A90037112F08F8003008F9003108FC0099
:1001E0003208FD00A721771C0C321030FC070030CC
:1001F000FD3DA721771C0D327C08B1007D08B200BF
:100200000C321030FC020030FD3BA7217718013280
:10021000F3332F08B1003008B2003108FC00320877
:10022000FD0013218D287C087002031D1B297D0809
:100230007102031908008B138B1BFD337C08F0003F
:100240007D08F1008B170800F21E1B321F32F21ED0
:100250000E321232F21E013205323408B000330879
:10026000AF0008003608B0003508AF0008003408B9
:10027000FD003308FC0008003608FD003508FC00CE
:1002800008007D08B4007C08B30008007D08B600B3
:100290007C08B50008002000721E08007212AD082C
:1002A000031DFD338C1D073222000C148C1420001A
:1002B000F2167215063222000C108C102000F21279
:1002C00072112A217F21132100309600FF30970000
:1002D0002500920191010830930020002C30AD00E0
:1002E0000130AE006430A90037110800B830FC00BE
:1002F000AF00B1000B30FD00B000B20008002F08C5
:10030000FC00B1003008FD00B200080010307D0292
:10031000031C9329031DA22968307C0203190800DD
:100320000318A229080007307D02031C9D29031D24
:10033000080008307C02031808000830FC00073071
:10034000FD0008006830FC001030FD000800F701D7
:1003500079087D02031CB429031D080078087C027B
:10036000031CB429031D08007714080020005F3027
:10037000FF00203084008501C1212030FF00A03023
:1003800084008001840AFF0BC1290800200000308E
:10039000A5003330840085010E228000373004022E
:1003A00003190800840AA50ACC2920000030A50002
:1003B0003330840085010008A6001822373004027B
:1003C00003190800840AA50ADB292E30EC292C30F9
:1003D000EC292A30EC292830840085011300000420
:1003E0000319080001308002840A0030803B0800B5
:1003F0002D082E0408002B082C04080029082A04C4
:1004000008002708280408000530092A4130092A75
:100410001930F700F70B0A2A0800A5002508230069
:100420009100151395131514130820000800A5005A
:1004300025082300910020002608230093001513AF
:1004400095138B13151555309600AA309600951408
:0C0450008B17151195182A2A20000800AF
:020000040001F9
:08000000010000000A000200EB
:0AE0000080000C00F0000A0002008E
:02000E00A42F1D
:02001000FF1ED1
:00000001FF
