:020000040000FA
:0600000083018A0157286C
:080008002000911C2728911033
:100010008501C921C721C521C32121000C160C155A
:10002000200072100C1D7214F2100C1EF2147217C4
:10003000A30B04322108A30021000C122000A40B02
:1000400005322208A400210072190C1120002000A2
:10005000111D56283714721E30282500930154288C
:10006000250013184828700891077108923D200058
:100070000A30B71C0930371D093025009300403085
:10008000F5009C30F6007008F5027108F63B542824
:10009000403091079C30923D20000A30B71C083058
:1000A000371D0830250093002000111109002100A0
:1000B0009517951295111514951415157230990010
:1000C0001730970023008C0120000130980099130D
:1000D00094214E309C0020007D309B002100911423
:1000E0002000721622001D14250093012100111515
:1000F000200000308C002100DC308C0020006400E7
:100100006430A1000130A2006400A42164000B1738
:100110008B1720004421640020002D082E04031DAD
:100120001932721C0B3220210230FC070030FD3DD9
:1001300064211D21F2150530AD000C32F21C0A328B
:1001400020210230FC020030FD3B64211D21F2150C
:100150000530AD00F219B321F2112B082C04031D58
:100160001F32721F1D3272138C1D0D320530380282
:10017000031D073222000C148C142000F216721595
:100180000E32B80A0D32B808031D073222000C10D7
:100190008C102000F21272110232B80301322321B6
:1001A0002000371C383237102F083102F800300891
:1001B000323BF804031D0432A9080319371526320F
:1001C0003230A90037112F08F8003008F900310843
:1001D000FC003208FD008521771C0C321030FC0732
:1001E0000030FD3D8521771C0D327C08B1007D0873
:1001F000B2000C321030FC020030FD3B8521771834
:100200000132F3332F08B1003008B2003108FC008E
:100210003208FD000C218B287C087002031D142974
:100220007D087102031908008B138B1BFD337C08BA
:10023000F0007D08F1008B170800F21E1B321F3200
:10024000F21E0E321232F21E013205323408B000B4
:100250003308AF0008003608B0003508AF000800CA
:100260003408FD003308FC0008003608FD0035089E
:10027000FC0008007D08B4007C08B30008007D087D
:10028000B6007C08B50008002000721E080072123B
:100290005B210C2100309600FF3097002500920171
:1002A00091010830930020002C30AD00AB000130EC
:1002B000AE00AC000800B830FC00AF00B1000B305D
:1002C000FD00B000B200080010307D02031C71294F
:1002D000031D802968307C02031908000318802957
:1002E000080007307D02031C7B29031D080008302D
:1002F0007C02031808000830FC000730FD000800ED
:100300006830FC001030FD000800F70179087D021C
:10031000031C9229031D080078087C02031C922903
:10032000031D08007714080020005F30FF00203014
:10033000840085019F212030FF00A03084008001CF
:10034000840AFF0B9F29080020000030A5003330ED
:1003500084008501EC218000373004020319080075
:10036000840AA50AAA2920000030A50033308400A1
:1003700085010008A600F6213730040203190800A1
:10038000840AA50AB9292E30CA292C30CA292A3054
:10039000CA292830840000088403000403190800D7
:1003A00001308002840A0030803B08002D082E04B2
:1003B00008002B082C04080029082A040800270834
:1003C000280408000530E7294130E7291930F700F3
:1003D000F70BE8290800A500250823009100151354
:1003E00095131514130820000800A5002508230004
:1003F00091002000260823009300151395138B13FA
:10040000151555309600AA30960095148B171511C6
:080410009518082A20000800DD
:040418000034003478
:020000040001F9
:08000000010000000A000200EB
:02000E00A42F1D
:02001000FF1ED1
:0AE0000080000C00F0000A0002008E
:00000001FF
