:020000040000FA
:0600000083018A014A2879
:080008002000911C2728911033
:100010008501582156215421522121000C160C151E
:10002000200072100C1D7214F2100C1EF2147217C4
:10003000A30B04322108A30021000C122000A40B02
:1000400005322208A400210072190C1120002000A2
:10005000111D4928721E2F282500930147282500CD
:1000600013184128700891077108923D09309300D8
:100070004030F5009C30F6007008F5027108F63B40
:100080004728403091079C30923D08309300200073
:100090001111090021009517951295111514951449
:1000A0001515723099001730970023008C0120003D
:1000B00001309800991323214E309C0020007D30A0
:1000C0009B00210091142000721622001D142500AF
:1000D000930121001115200000308C002100DC303C
:1000E0008C00200064006430A1000130A200640094
:1000F000332164000B178B172000EC2064002000D4
:10010000AD08031D1932721C0B32D5200130FC07DB
:100110000301FD3D0221D220F2150530AD000C3265
:10012000F21C0A32D5200130FC020301FD3B022102
:10013000D220F2150530AD00F2194221F211721FE2
:100140001F3272138C1D0E3205303402031D08322B
:1001500022000C148C142000F2167215DD200F32D0
:10016000B40A0E32B408031D083222000C108C10A1
:100170002000F2127211D8200232B4030132C120E1
:100180007E287C087002031DC9287D0871020319AE
:1001900008008B138B1BFD337C08F0007D08F100F9
:1001A0008B170800F21E0E321232F21E0132053297
:1001B0003008FD002F08FC0008003208FD0031085F
:1001C000FC0008007D08B0007C08AF0008007D0836
:1001D000B2007C08B10008002000721E08007212F4
:1001E000FD20C12000309600FF30970025009201CD
:1001F00091010830930020000800B830FC000B305B
:10020000FD0008000E307D02031C0F29031D1E296E
:10021000D8307C020319080003181E290800083092
:100220007D02031C1929031D080098307C02031865
:1002300008009830FC000830FD000800D830FC00B1
:100240000E30FD00080020005F30FF0020308400E9
:1002500085012E212030FF00A03084008001840A17
:10026000FF0B2E29080020000030A5002F3084004D
:1002700085017B2180003330040203190800840AC1
:10028000A50A392920000030A5002F3084008501FF
:100290000008A60085213330040203190800840AEF
:1002A000A50A48292E3059292C3059292A30592994
:1002B000283084000008840300040319080001307A
:1002C0008002840A0030803B08002D082E040800BC
:1002D0002B082C04080029082A04080027082804F1
:1002E000080005307629413076291930F700F70BE0
:1002F00077290800A5002508230091001513951300
:100300001514130820000800A500250823009100FB
:100310002000260823009300151395138B13151541
:1003200055309600AA30960095148B171511951824
:06033000972920000800DF
:04033600003400345B
:020000040001F9
:08000000010000000A000200EB
:02000E00A42F1D
:02001000FF1ED1
:0AE00000B8000B00B8000B00000090
:00000001FF
